{
  "contractName": "Factory",
  "abi": [
    {
      "anonymous": false,
      "inputs": [
        {
          "indexed": false,
          "internalType": "address",
          "name": "tokenAddress",
          "type": "address"
        }
      ],
      "name": "ERC20TokenCreated",
      "type": "event"
    },
    {
      "anonymous": false,
      "inputs": [
        {
          "indexed": false,
          "internalType": "address",
          "name": "tokenAddress",
          "type": "address"
        }
      ],
      "name": "ERC721TokenCreated",
      "type": "event"
    },
    {
      "inputs": [
        {
          "internalType": "string",
          "name": "name",
          "type": "string"
        },
        {
          "internalType": "string",
          "name": "symbol",
          "type": "string"
        },
        {
          "internalType": "uint8",
          "name": "decimals",
          "type": "uint8"
        },
        {
          "internalType": "uint256",
          "name": "initialSupply",
          "type": "uint256"
        }
      ],
      "name": "deployNewERC20Token",
      "outputs": [
        {
          "internalType": "address",
          "name": "",
          "type": "address"
        }
      ],
      "stateMutability": "nonpayable",
      "type": "function"
    },
    {
      "inputs": [
        {
          "internalType": "string",
          "name": "name",
          "type": "string"
        },
        {
          "internalType": "string",
          "name": "symbol",
          "type": "string"
        }
      ],
      "name": "deployNewERC721Token",
      "outputs": [
        {
          "internalType": "address",
          "name": "",
          "type": "address"
        }
      ],
      "stateMutability": "nonpayable",
      "type": "function"
    }
  ],
  "bytecode": "0x608060405234801561001057600080fd5b5061504a806100206000396000f3fe60806040523480156200001157600080fd5b50600436106200003a5760003560e01c806355c1b0ff146200003f578063caa666cc1462000075575b600080fd5b6200005d6004803603810190620000579190620002d6565b620000ab565b6040516200006c9190620003d3565b60405180910390f35b6200009360048036038101906200008d91906200054d565b6200013c565b604051620000a29190620003d3565b60405180910390f35b60008087878787878733604051620000c390620001bf565b620000d5979695949392919062000638565b604051809103906000f080158015620000f2573d6000803e3d6000fd5b5090507f60122e78030aba0a2e4a67adb3e52b411343cc51778f919095d3fe394090c1b281604051620001269190620003d3565b60405180910390a1809150509695505050505050565b60008083836040516200014f90620001cd565b6200015c92919062000729565b604051809103906000f08015801562000179573d6000803e3d6000fd5b5090507f4c97b8209c39dc4c091e661e16319119ba9b7bfa622f8646ebf8cfb8a6bbb18481604051620001ad9190620003d3565b60405180910390a18091505092915050565b611c28806200076583390190565b612c88806200238d83390190565b6000604051905090565b600080fd5b600080fd5b600080fd5b600080fd5b600080fd5b60008083601f840112620002175762000216620001ef565b5b8235905067ffffffffffffffff811115620002375762000236620001f4565b5b602083019150836001820283011115620002565762000255620001f9565b5b9250929050565b600060ff82169050919050565b62000275816200025d565b81146200028157600080fd5b50565b60008135905062000295816200026a565b92915050565b6000819050919050565b620002b0816200029b565b8114620002bc57600080fd5b50565b600081359050620002d081620002a5565b92915050565b60008060008060008060808789031215620002f657620002f5620001e5565b5b600087013567ffffffffffffffff811115620003175762000316620001ea565b5b6200032589828a01620001fe565b9650965050602087013567ffffffffffffffff8111156200034b576200034a620001ea565b5b6200035989828a01620001fe565b945094505060406200036e89828a0162000284565b92505060606200038189828a01620002bf565b9150509295509295509295565b600073ffffffffffffffffffffffffffffffffffffffff82169050919050565b6000620003bb826200038e565b9050919050565b620003cd81620003ae565b82525050565b6000602082019050620003ea6000830184620003c2565b92915050565b600080fd5b6000601f19601f8301169050919050565b7f4e487b7100000000000000000000000000000000000000000000000000000000600052604160045260246000fd5b6200044082620003f5565b810181811067ffffffffffffffff8211171562000462576200046162000406565b5b80604052505050565b600062000477620001db565b905062000485828262000435565b919050565b600067ffffffffffffffff821115620004a857620004a762000406565b5b620004b382620003f5565b9050602081019050919050565b82818337600083830152505050565b6000620004e6620004e0846200048a565b6200046b565b905082815260208101848484011115620005055762000504620003f0565b5b62000512848285620004c0565b509392505050565b600082601f830112620005325762000531620001ef565b5b813562000544848260208601620004cf565b91505092915050565b60008060408385031215620005675762000566620001e5565b5b600083013567ffffffffffffffff811115620005885762000587620001ea565b5b62000596858286016200051a565b925050602083013567ffffffffffffffff811115620005ba57620005b9620001ea565b5b620005c8858286016200051a565b9150509250929050565b600082825260208201905092915050565b6000620005f18385620005d2565b935062000600838584620004c0565b6200060b83620003f5565b840190509392505050565b62000621816200025d565b82525050565b62000632816200029b565b82525050565b600060a08201905081810360008301526200065581898b620005e3565b905081810360208301526200066c818789620005e3565b90506200067d604083018662000616565b6200068c606083018562000627565b6200069b6080830184620003c2565b98975050505050505050565b600081519050919050565b60005b83811015620006d2578082015181840152602081019050620006b5565b83811115620006e2576000848401525b50505050565b6000620006f582620006a7565b620007018185620005d2565b935062000713818560208601620006b2565b6200071e81620003f5565b840191505092915050565b60006040820190508181036000830152620007458185620006e8565b905081810360208301526200075b8184620006e8565b9050939250505056fe60806040523480156200001157600080fd5b5060405162001c2838038062001c2883398181016040528101906200003791906200054b565b848481600390805190602001906200005192919062000220565b5080600490805190602001906200006a92919062000220565b5050506200009d818460ff16600a62000084919062000794565b84620000919190620007e5565b620000a860201b60201c565b5050505050620009b9565b600073ffffffffffffffffffffffffffffffffffffffff168273ffffffffffffffffffffffffffffffffffffffff1614156200011b576040517f08c379a00000000000000000000000000000000000000000000000000000000081526004016200011290620008a7565b60405180910390fd5b6200012f600083836200021660201b60201c565b8060026000828254620001439190620008c9565b92505081905550806000808473ffffffffffffffffffffffffffffffffffffffff1673ffffffffffffffffffffffffffffffffffffffff168152602001908152602001600020600082825401925050819055508173ffffffffffffffffffffffffffffffffffffffff16600073ffffffffffffffffffffffffffffffffffffffff167fddf252ad1be2c89b69c2b068fc378daa952ba7f163c4a11628f55a4df523b3ef83604051620001f6919062000937565b60405180910390a362000212600083836200021b60201b60201c565b5050565b505050565b505050565b8280546200022e9062000983565b90600052602060002090601f0160209004810192826200025257600085556200029e565b82601f106200026d57805160ff19168380011785556200029e565b828001600101855582156200029e579182015b828111156200029d57825182559160200191906001019062000280565b5b509050620002ad9190620002b1565b5090565b5b80821115620002cc576000816000905550600101620002b2565b5090565b6000604051905090565b600080fd5b600080fd5b600080fd5b600080fd5b6000601f19601f8301169050919050565b7f4e487b7100000000000000000000000000000000000000000000000000000000600052604160045260246000fd5b6200033982620002ee565b810181811067ffffffffffffffff821117156200035b576200035a620002ff565b5b80604052505050565b600062000370620002d0565b90506200037e82826200032e565b919050565b600067ffffffffffffffff821115620003a157620003a0620002ff565b5b620003ac82620002ee565b9050602081019050919050565b60005b83811015620003d9578082015181840152602081019050620003bc565b83811115620003e9576000848401525b50505050565b600062000406620004008462000383565b62000364565b905082815260208101848484011115620004255762000424620002e9565b5b62000432848285620003b9565b509392505050565b600082601f830112620004525762000451620002e4565b5b815162000464848260208601620003ef565b91505092915050565b600060ff82169050919050565b62000485816200046d565b81146200049157600080fd5b50565b600081519050620004a5816200047a565b92915050565b6000819050919050565b620004c081620004ab565b8114620004cc57600080fd5b50565b600081519050620004e081620004b5565b92915050565b600073ffffffffffffffffffffffffffffffffffffffff82169050919050565b60006200051382620004e6565b9050919050565b620005258162000506565b81146200053157600080fd5b50565b60008151905062000545816200051a565b92915050565b600080600080600060a086880312156200056a5762000569620002da565b5b600086015167ffffffffffffffff8111156200058b576200058a620002df565b5b62000599888289016200043a565b955050602086015167ffffffffffffffff811115620005bd57620005bc620002df565b5b620005cb888289016200043a565b9450506040620005de8882890162000494565b9350506060620005f188828901620004cf565b9250506080620006048882890162000534565b9150509295509295909350565b7f4e487b7100000000000000000000000000000000000000000000000000000000600052601160045260246000fd5b60008160011c9050919050565b6000808291508390505b60018511156200069f5780860481111562000677576200067662000611565b5b6001851615620006875780820291505b8081029050620006978562000640565b945062000657565b94509492505050565b600082620006ba57600190506200078d565b81620006ca57600090506200078d565b8160018114620006e35760028114620006ee5762000724565b60019150506200078d565b60ff84111562000703576200070262000611565b5b8360020a9150848211156200071d576200071c62000611565b5b506200078d565b5060208310610133831016604e8410600b84101617156200075e5782820a90508381111562000758576200075762000611565b5b6200078d565b6200076d84848460016200064d565b9250905081840481111562000787576200078662000611565b5b81810290505b9392505050565b6000620007a182620004ab565b9150620007ae83620004ab565b9250620007dd7fffffffffffffffffffffffffffffffffffffffffffffffffffffffffffffffff8484620006a8565b905092915050565b6000620007f282620004ab565b9150620007ff83620004ab565b9250817fffffffffffffffffffffffffffffffffffffffffffffffffffffffffffffffff04831182151516156200083b576200083a62000611565b5b828202905092915050565b600082825260208201905092915050565b7f45524332303a206d696e7420746f20746865207a65726f206164647265737300600082015250565b60006200088f601f8362000846565b91506200089c8262000857565b602082019050919050565b60006020820190508181036000830152620008c28162000880565b9050919050565b6000620008d682620004ab565b9150620008e383620004ab565b9250827fffffffffffffffffffffffffffffffffffffffffffffffffffffffffffffffff038211156200091b576200091a62000611565b5b828201905092915050565b6200093181620004ab565b82525050565b60006020820190506200094e600083018462000926565b92915050565b7f4e487b7100000000000000000000000000000000000000000000000000000000600052602260045260246000fd5b600060028204905060018216806200099c57607f821691505b60208210811415620009b357620009b262000954565b5b50919050565b61125f80620009c96000396000f3fe608060405234801561001057600080fd5b50600436106100a95760003560e01c80633950935111610071578063395093511461016857806370a082311461019857806395d89b41146101c8578063a457c2d7146101e6578063a9059cbb14610216578063dd62ed3e14610246576100a9565b806306fdde03146100ae578063095ea7b3146100cc57806318160ddd146100fc57806323b872dd1461011a578063313ce5671461014a575b600080fd5b6100b6610276565b6040516100c39190610b19565b60405180910390f35b6100e660048036038101906100e19190610bd4565b610308565b6040516100f39190610c2f565b60405180910390f35b61010461032b565b6040516101119190610c59565b60405180910390f35b610134600480360381019061012f9190610c74565b610335565b6040516101419190610c2f565b60405180910390f35b610152610364565b60405161015f9190610ce3565b60405180910390f35b610182600480360381019061017d9190610bd4565b61036d565b60405161018f9190610c2f565b60405180910390f35b6101b260048036038101906101ad9190610cfe565b6103a4565b6040516101bf9190610c59565b60405180910390f35b6101d06103ec565b6040516101dd9190610b19565b60405180910390f35b61020060048036038101906101fb9190610bd4565b61047e565b60405161020d9190610c2f565b60405180910390f35b610230600480360381019061022b9190610bd4565b6104f5565b60405161023d9190610c2f565b60405180910390f35b610260600480360381019061025b9190610d2b565b610518565b60405161026d9190610c59565b60405180910390f35b60606003805461028590610d9a565b80601f01602080910402602001604051908101604052809291908181526020018280546102b190610d9a565b80156102fe5780601f106102d3576101008083540402835291602001916102fe565b820191906000526020600020905b8154815290600101906020018083116102e157829003601f168201915b5050505050905090565b60008061031361059f565b90506103208185856105a7565b600191505092915050565b6000600254905090565b60008061034061059f565b905061034d858285610772565b6103588585856107fe565b60019150509392505050565b60006012905090565b60008061037861059f565b905061039981858561038a8589610518565b6103949190610dfb565b6105a7565b600191505092915050565b60008060008373ffffffffffffffffffffffffffffffffffffffff1673ffffffffffffffffffffffffffffffffffffffff168152602001908152602001600020549050919050565b6060600480546103fb90610d9a565b80601f016020809104026020016040519081016040528092919081815260200182805461042790610d9a565b80156104745780601f1061044957610100808354040283529160200191610474565b820191906000526020600020905b81548152906001019060200180831161045757829003601f168201915b5050505050905090565b60008061048961059f565b905060006104978286610518565b9050838110156104dc576040517f08c379a00000000000000000000000000000000000000000000000000000000081526004016104d390610ec3565b60405180910390fd5b6104e982868684036105a7565b60019250505092915050565b60008061050061059f565b905061050d8185856107fe565b600191505092915050565b6000600160008473ffffffffffffffffffffffffffffffffffffffff1673ffffffffffffffffffffffffffffffffffffffff16815260200190815260200160002060008373ffffffffffffffffffffffffffffffffffffffff1673ffffffffffffffffffffffffffffffffffffffff16815260200190815260200160002054905092915050565b600033905090565b600073ffffffffffffffffffffffffffffffffffffffff168373ffffffffffffffffffffffffffffffffffffffff161415610617576040517f08c379a000000000000000000000000000000000000000000000000000000000815260040161060e90610f55565b60405180910390fd5b600073ffffffffffffffffffffffffffffffffffffffff168273ffffffffffffffffffffffffffffffffffffffff161415610687576040517f08c379a000000000000000000000000000000000000000000000000000000000815260040161067e90610fe7565b60405180910390fd5b80600160008573ffffffffffffffffffffffffffffffffffffffff1673ffffffffffffffffffffffffffffffffffffffff16815260200190815260200160002060008473ffffffffffffffffffffffffffffffffffffffff1673ffffffffffffffffffffffffffffffffffffffff168152602001908152602001600020819055508173ffffffffffffffffffffffffffffffffffffffff168373ffffffffffffffffffffffffffffffffffffffff167f8c5be1e5ebec7d5bd14f71427d1e84f3dd0314c0f7b2291e5b200ac8c7c3b925836040516107659190610c59565b60405180910390a3505050565b600061077e8484610518565b90507fffffffffffffffffffffffffffffffffffffffffffffffffffffffffffffffff81146107f857818110156107ea576040517f08c379a00000000000000000000000000000000000000000000000000000000081526004016107e190611053565b60405180910390fd5b6107f784848484036105a7565b5b50505050565b600073ffffffffffffffffffffffffffffffffffffffff168373ffffffffffffffffffffffffffffffffffffffff16141561086e576040517f08c379a0000000000000000000000000000000000000000000000000000000008152600401610865906110e5565b60405180910390fd5b600073ffffffffffffffffffffffffffffffffffffffff168273ffffffffffffffffffffffffffffffffffffffff1614156108de576040517f08c379a00000000000000000000000000000000000000000000000000000000081526004016108d590611177565b60405180910390fd5b6108e9838383610a76565b60008060008573ffffffffffffffffffffffffffffffffffffffff1673ffffffffffffffffffffffffffffffffffffffff1681526020019081526020016000205490508181101561096f576040517f08c379a000000000000000000000000000000000000000000000000000000000815260040161096690611209565b60405180910390fd5b8181036000808673ffffffffffffffffffffffffffffffffffffffff1673ffffffffffffffffffffffffffffffffffffffff16815260200190815260200160002081905550816000808573ffffffffffffffffffffffffffffffffffffffff1673ffffffffffffffffffffffffffffffffffffffff168152602001908152602001600020600082825401925050819055508273ffffffffffffffffffffffffffffffffffffffff168473ffffffffffffffffffffffffffffffffffffffff167fddf252ad1be2c89b69c2b068fc378daa952ba7f163c4a11628f55a4df523b3ef84604051610a5d9190610c59565b60405180910390a3610a70848484610a7b565b50505050565b505050565b505050565b600081519050919050565b600082825260208201905092915050565b60005b83811015610aba578082015181840152602081019050610a9f565b83811115610ac9576000848401525b50505050565b6000601f19601f8301169050919050565b6000610aeb82610a80565b610af58185610a8b565b9350610b05818560208601610a9c565b610b0e81610acf565b840191505092915050565b60006020820190508181036000830152610b338184610ae0565b905092915050565b600080fd5b600073ffffffffffffffffffffffffffffffffffffffff82169050919050565b6000610b6b82610b40565b9050919050565b610b7b81610b60565b8114610b8657600080fd5b50565b600081359050610b9881610b72565b92915050565b6000819050919050565b610bb181610b9e565b8114610bbc57600080fd5b50565b600081359050610bce81610ba8565b92915050565b60008060408385031215610beb57610bea610b3b565b5b6000610bf985828601610b89565b9250506020610c0a85828601610bbf565b9150509250929050565b60008115159050919050565b610c2981610c14565b82525050565b6000602082019050610c446000830184610c20565b92915050565b610c5381610b9e565b82525050565b6000602082019050610c6e6000830184610c4a565b92915050565b600080600060608486031215610c8d57610c8c610b3b565b5b6000610c9b86828701610b89565b9350506020610cac86828701610b89565b9250506040610cbd86828701610bbf565b9150509250925092565b600060ff82169050919050565b610cdd81610cc7565b82525050565b6000602082019050610cf86000830184610cd4565b92915050565b600060208284031215610d1457610d13610b3b565b5b6000610d2284828501610b89565b91505092915050565b60008060408385031215610d4257610d41610b3b565b5b6000610d5085828601610b89565b9250506020610d6185828601610b89565b9150509250929050565b7f4e487b7100000000000000000000000000000000000000000000000000000000600052602260045260246000fd5b60006002820490506001821680610db257607f821691505b60208210811415610dc657610dc5610d6b565b5b50919050565b7f4e487b7100000000000000000000000000000000000000000000000000000000600052601160045260246000fd5b6000610e0682610b9e565b9150610e1183610b9e565b9250827fffffffffffffffffffffffffffffffffffffffffffffffffffffffffffffffff03821115610e4657610e45610dcc565b5b828201905092915050565b7f45524332303a2064656372656173656420616c6c6f77616e63652062656c6f7760008201527f207a65726f000000000000000000000000000000000000000000000000000000602082015250565b6000610ead602583610a8b565b9150610eb882610e51565b604082019050919050565b60006020820190508181036000830152610edc81610ea0565b9050919050565b7f45524332303a20617070726f76652066726f6d20746865207a65726f2061646460008201527f7265737300000000000000000000000000000000000000000000000000000000602082015250565b6000610f3f602483610a8b565b9150610f4a82610ee3565b604082019050919050565b60006020820190508181036000830152610f6e81610f32565b9050919050565b7f45524332303a20617070726f766520746f20746865207a65726f20616464726560008201527f7373000000000000000000000000000000000000000000000000000000000000602082015250565b6000610fd1602283610a8b565b9150610fdc82610f75565b604082019050919050565b6000602082019050818103600083015261100081610fc4565b9050919050565b7f45524332303a20696e73756666696369656e7420616c6c6f77616e6365000000600082015250565b600061103d601d83610a8b565b915061104882611007565b602082019050919050565b6000602082019050818103600083015261106c81611030565b9050919050565b7f45524332303a207472616e736665722066726f6d20746865207a65726f20616460008201527f6472657373000000000000000000000000000000000000000000000000000000602082015250565b60006110cf602583610a8b565b91506110da82611073565b604082019050919050565b600060208201905081810360008301526110fe816110c2565b9050919050565b7f45524332303a207472616e7366657220746f20746865207a65726f206164647260008201527f6573730000000000000000000000000000000000000000000000000000000000602082015250565b6000611161602383610a8b565b915061116c82611105565b604082019050919050565b6000602082019050818103600083015261119081611154565b9050919050565b7f45524332303a207472616e7366657220616d6f756e742065786365656473206260008201527f616c616e63650000000000000000000000000000000000000000000000000000602082015250565b60006111f3602683610a8b565b91506111fe82611197565b604082019050919050565b60006020820190508181036000830152611222816111e6565b905091905056fea2646970667358221220113fc626e8b2540d8d43fb1a5718dcbf432af5287604b04a7cbf6f3f9f1be4ff64736f6c6343000809003360806040523480156200001157600080fd5b5060405162002c8838038062002c888339818101604052810190620000379190620002c2565b818181600090805190602001906200005192919062000075565b5080600190805190602001906200006a92919062000075565b5050505050620003ac565b828054620000839062000376565b90600052602060002090601f016020900481019282620000a75760008555620000f3565b82601f10620000c257805160ff1916838001178555620000f3565b82800160010185558215620000f3579182015b82811115620000f2578251825591602001919060010190620000d5565b5b50905062000102919062000106565b5090565b5b808211156200012157600081600090555060010162000107565b5090565b6000604051905090565b600080fd5b600080fd5b600080fd5b600080fd5b6000601f19601f8301169050919050565b7f4e487b7100000000000000000000000000000000000000000000000000000000600052604160045260246000fd5b6200018e8262000143565b810181811067ffffffffffffffff82111715620001b057620001af62000154565b5b80604052505050565b6000620001c562000125565b9050620001d3828262000183565b919050565b600067ffffffffffffffff821115620001f657620001f562000154565b5b620002018262000143565b9050602081019050919050565b60005b838110156200022e57808201518184015260208101905062000211565b838111156200023e576000848401525b50505050565b60006200025b6200025584620001d8565b620001b9565b9050828152602081018484840111156200027a57620002796200013e565b5b620002878482856200020e565b509392505050565b600082601f830112620002a757620002a662000139565b5b8151620002b984826020860162000244565b91505092915050565b60008060408385031215620002dc57620002db6200012f565b5b600083015167ffffffffffffffff811115620002fd57620002fc62000134565b5b6200030b858286016200028f565b925050602083015167ffffffffffffffff8111156200032f576200032e62000134565b5b6200033d858286016200028f565b9150509250929050565b7f4e487b7100000000000000000000000000000000000000000000000000000000600052602260045260246000fd5b600060028204905060018216806200038f57607f821691505b60208210811415620003a657620003a562000347565b5b50919050565b6128cc80620003bc6000396000f3fe608060405234801561001057600080fd5b50600436106100ea5760003560e01c806370a082311161008c578063b88d4fde11610066578063b88d4fde1461025b578063c87b56dd14610277578063cf378343146102a7578063e985e9c5146102d7576100ea565b806370a08231146101f157806395d89b4114610221578063a22cb4651461023f576100ea565b8063095ea7b3116100c8578063095ea7b31461016d57806323b872dd1461018957806342842e0e146101a55780636352211e146101c1576100ea565b806301ffc9a7146100ef57806306fdde031461011f578063081812fc1461013d575b600080fd5b61010960048036038101906101049190611a2f565b610307565b6040516101169190611a77565b60405180910390f35b6101276103e9565b6040516101349190611b2b565b60405180910390f35b61015760048036038101906101529190611b83565b61047b565b6040516101649190611bf1565b60405180910390f35b61018760048036038101906101829190611c38565b6104c1565b005b6101a3600480360381019061019e9190611c78565b6105d9565b005b6101bf60048036038101906101ba9190611c78565b610639565b005b6101db60048036038101906101d69190611b83565b610659565b6040516101e89190611bf1565b60405180910390f35b61020b60048036038101906102069190611ccb565b6106e0565b6040516102189190611d07565b60405180910390f35b610229610798565b6040516102369190611b2b565b60405180910390f35b61025960048036038101906102549190611d4e565b61082a565b005b61027560048036038101906102709190611ec3565b610840565b005b610291600480360381019061028c9190611b83565b6108a2565b60405161029e9190611b2b565b60405180910390f35b6102c160048036038101906102bc9190611fe7565b6109b5565b6040516102ce9190611d07565b60405180910390f35b6102f160048036038101906102ec9190612043565b610a1a565b6040516102fe9190611a77565b60405180910390f35b60007f80ac58cd000000000000000000000000000000000000000000000000000000007bffffffffffffffffffffffffffffffffffffffffffffffffffffffff1916827bffffffffffffffffffffffffffffffffffffffffffffffffffffffff191614806103d257507f5b5e139f000000000000000000000000000000000000000000000000000000007bffffffffffffffffffffffffffffffffffffffffffffffffffffffff1916827bffffffffffffffffffffffffffffffffffffffffffffffffffffffff1916145b806103e257506103e182610aae565b5b9050919050565b6060600080546103f8906120b2565b80601f0160208091040260200160405190810160405280929190818152602001828054610424906120b2565b80156104715780601f1061044657610100808354040283529160200191610471565b820191906000526020600020905b81548152906001019060200180831161045457829003601f168201915b5050505050905090565b600061048682610b18565b6004600083815260200190815260200160002060009054906101000a900473ffffffffffffffffffffffffffffffffffffffff169050919050565b60006104cc82610659565b90508073ffffffffffffffffffffffffffffffffffffffff168373ffffffffffffffffffffffffffffffffffffffff16141561053d576040517f08c379a000000000000000000000000000000000000000000000000000000000815260040161053490612156565b60405180910390fd5b8073ffffffffffffffffffffffffffffffffffffffff1661055c610b63565b73ffffffffffffffffffffffffffffffffffffffff16148061058b575061058a81610585610b63565b610a1a565b5b6105ca576040517f08c379a00000000000000000000000000000000000000000000000000000000081526004016105c1906121e8565b60405180910390fd5b6105d48383610b6b565b505050565b6105ea6105e4610b63565b82610c24565b610629576040517f08c379a00000000000000000000000000000000000000000000000000000000081526004016106209061227a565b60405180910390fd5b610634838383610cb9565b505050565b61065483838360405180602001604052806000815250610840565b505050565b60008061066583610fb3565b9050600073ffffffffffffffffffffffffffffffffffffffff168173ffffffffffffffffffffffffffffffffffffffff1614156106d7576040517f08c379a00000000000000000000000000000000000000000000000000000000081526004016106ce906122e6565b60405180910390fd5b80915050919050565b60008073ffffffffffffffffffffffffffffffffffffffff168273ffffffffffffffffffffffffffffffffffffffff161415610751576040517f08c379a000000000000000000000000000000000000000000000000000000000815260040161074890612378565b60405180910390fd5b600360008373ffffffffffffffffffffffffffffffffffffffff1673ffffffffffffffffffffffffffffffffffffffff168152602001908152602001600020549050919050565b6060600180546107a7906120b2565b80601f01602080910402602001604051908101604052809291908181526020018280546107d3906120b2565b80156108205780601f106107f557610100808354040283529160200191610820565b820191906000526020600020905b81548152906001019060200180831161080357829003601f168201915b5050505050905090565b61083c610835610b63565b8383610ff0565b5050565b61085161084b610b63565b83610c24565b610890576040517f08c379a00000000000000000000000000000000000000000000000000000000081526004016108879061227a565b60405180910390fd5b61089c8484848461115d565b50505050565b60606108ad82610b18565b60006006600084815260200190815260200160002080546108cd906120b2565b80601f01602080910402602001604051908101604052809291908181526020018280546108f9906120b2565b80156109465780601f1061091b57610100808354040283529160200191610946565b820191906000526020600020905b81548152906001019060200180831161092957829003601f168201915b5050505050905060006109576111b9565b905060008151141561096d5781925050506109b0565b6000825111156109a257808260405160200161098a9291906123d4565b604051602081830303815290604052925050506109b0565b6109ab846111d0565b925050505b919050565b60006109c16007611238565b60006109cd600761124e565b90506109d9848261125c565b6109e3818461147a565b807f04fa5ad21596aadb14a7338dab190ec984146e632bc0325efb144991280396cc60405160405180910390a28091505092915050565b6000600560008473ffffffffffffffffffffffffffffffffffffffff1673ffffffffffffffffffffffffffffffffffffffff16815260200190815260200160002060008373ffffffffffffffffffffffffffffffffffffffff1673ffffffffffffffffffffffffffffffffffffffff16815260200190815260200160002060009054906101000a900460ff16905092915050565b60007f01ffc9a7000000000000000000000000000000000000000000000000000000007bffffffffffffffffffffffffffffffffffffffffffffffffffffffff1916827bffffffffffffffffffffffffffffffffffffffffffffffffffffffff1916149050919050565b610b21816114ee565b610b60576040517f08c379a0000000000000000000000000000000000000000000000000000000008152600401610b57906122e6565b60405180910390fd5b50565b600033905090565b816004600083815260200190815260200160002060006101000a81548173ffffffffffffffffffffffffffffffffffffffff021916908373ffffffffffffffffffffffffffffffffffffffff160217905550808273ffffffffffffffffffffffffffffffffffffffff16610bde83610659565b73ffffffffffffffffffffffffffffffffffffffff167f8c5be1e5ebec7d5bd14f71427d1e84f3dd0314c0f7b2291e5b200ac8c7c3b92560405160405180910390a45050565b600080610c3083610659565b90508073ffffffffffffffffffffffffffffffffffffffff168473ffffffffffffffffffffffffffffffffffffffff161480610c725750610c718185610a1a565b5b80610cb057508373ffffffffffffffffffffffffffffffffffffffff16610c988461047b565b73ffffffffffffffffffffffffffffffffffffffff16145b91505092915050565b8273ffffffffffffffffffffffffffffffffffffffff16610cd982610659565b73ffffffffffffffffffffffffffffffffffffffff1614610d2f576040517f08c379a0000000000000000000000000000000000000000000000000000000008152600401610d269061246a565b60405180910390fd5b600073ffffffffffffffffffffffffffffffffffffffff168273ffffffffffffffffffffffffffffffffffffffff161415610d9f576040517f08c379a0000000000000000000000000000000000000000000000000000000008152600401610d96906124fc565b60405180910390fd5b610dac838383600161152f565b8273ffffffffffffffffffffffffffffffffffffffff16610dcc82610659565b73ffffffffffffffffffffffffffffffffffffffff1614610e22576040517f08c379a0000000000000000000000000000000000000000000000000000000008152600401610e199061246a565b60405180910390fd5b6004600082815260200190815260200160002060006101000a81549073ffffffffffffffffffffffffffffffffffffffff02191690556001600360008573ffffffffffffffffffffffffffffffffffffffff1673ffffffffffffffffffffffffffffffffffffffff168152602001908152602001600020600082825403925050819055506001600360008473ffffffffffffffffffffffffffffffffffffffff1673ffffffffffffffffffffffffffffffffffffffff16815260200190815260200160002060008282540192505081905550816002600083815260200190815260200160002060006101000a81548173ffffffffffffffffffffffffffffffffffffffff021916908373ffffffffffffffffffffffffffffffffffffffff160217905550808273ffffffffffffffffffffffffffffffffffffffff168473ffffffffffffffffffffffffffffffffffffffff167fddf252ad1be2c89b69c2b068fc378daa952ba7f163c4a11628f55a4df523b3ef60405160405180910390a4610fae8383836001611535565b505050565b60006002600083815260200190815260200160002060009054906101000a900473ffffffffffffffffffffffffffffffffffffffff169050919050565b8173ffffffffffffffffffffffffffffffffffffffff168373ffffffffffffffffffffffffffffffffffffffff16141561105f576040517f08c379a000000000000000000000000000000000000000000000000000000000815260040161105690612568565b60405180910390fd5b80600560008573ffffffffffffffffffffffffffffffffffffffff1673ffffffffffffffffffffffffffffffffffffffff16815260200190815260200160002060008473ffffffffffffffffffffffffffffffffffffffff1673ffffffffffffffffffffffffffffffffffffffff16815260200190815260200160002060006101000a81548160ff0219169083151502179055508173ffffffffffffffffffffffffffffffffffffffff168373ffffffffffffffffffffffffffffffffffffffff167f17307eab39ab6107e8899845ad3d59bd9653f200f220920489ca2b5937696c31836040516111509190611a77565b60405180910390a3505050565b611168848484610cb9565b6111748484848461153b565b6111b3576040517f08c379a00000000000000000000000000000000000000000000000000000000081526004016111aa906125fa565b60405180910390fd5b50505050565b606060405180602001604052806000815250905090565b60606111db82610b18565b60006111e56111b9565b905060008151116112055760405180602001604052806000815250611230565b8061120f846116d2565b6040516020016112209291906123d4565b6040516020818303038152906040525b915050919050565b6001816000016000828254019250508190555050565b600081600001549050919050565b600073ffffffffffffffffffffffffffffffffffffffff168273ffffffffffffffffffffffffffffffffffffffff1614156112cc576040517f08c379a00000000000000000000000000000000000000000000000000000000081526004016112c390612666565b60405180910390fd5b6112d5816114ee565b15611315576040517f08c379a000000000000000000000000000000000000000000000000000000000815260040161130c906126d2565b60405180910390fd5b61132360008383600161152f565b61132c816114ee565b1561136c576040517f08c379a0000000000000000000000000000000000000000000000000000000008152600401611363906126d2565b60405180910390fd5b6001600360008473ffffffffffffffffffffffffffffffffffffffff1673ffffffffffffffffffffffffffffffffffffffff16815260200190815260200160002060008282540192505081905550816002600083815260200190815260200160002060006101000a81548173ffffffffffffffffffffffffffffffffffffffff021916908373ffffffffffffffffffffffffffffffffffffffff160217905550808273ffffffffffffffffffffffffffffffffffffffff16600073ffffffffffffffffffffffffffffffffffffffff167fddf252ad1be2c89b69c2b068fc378daa952ba7f163c4a11628f55a4df523b3ef60405160405180910390a4611476600083836001611535565b5050565b611483826114ee565b6114c2576040517f08c379a00000000000000000000000000000000000000000000000000000000081526004016114b990612764565b60405180910390fd5b806006600084815260200190815260200160002090805190602001906114e9929190611920565b505050565b60008073ffffffffffffffffffffffffffffffffffffffff1661151083610fb3565b73ffffffffffffffffffffffffffffffffffffffff1614159050919050565b50505050565b50505050565b600061155c8473ffffffffffffffffffffffffffffffffffffffff166117aa565b156116c5578373ffffffffffffffffffffffffffffffffffffffff1663150b7a02611585610b63565b8786866040518563ffffffff1660e01b81526004016115a794939291906127d9565b602060405180830381600087803b1580156115c157600080fd5b505af19250505080156115f257506040513d601f19601f820116820180604052508101906115ef919061283a565b60015b611675573d8060008114611622576040519150601f19603f3d011682016040523d82523d6000602084013e611627565b606091505b5060008151141561166d576040517f08c379a0000000000000000000000000000000000000000000000000000000008152600401611664906125fa565b60405180910390fd5b805181602001fd5b63150b7a0260e01b7bffffffffffffffffffffffffffffffffffffffffffffffffffffffff1916817bffffffffffffffffffffffffffffffffffffffffffffffffffffffff1916149150506116ca565b600190505b949350505050565b6060600060016116e1846117cd565b01905060008167ffffffffffffffff811115611700576116ff611d98565b5b6040519080825280601f01601f1916602001820160405280156117325781602001600182028036833780820191505090505b509050600082602001820190505b60011561179f578080600190039150507f3031323334353637383961626364656600000000000000000000000000000000600a86061a8153600a858161178957611788612867565b5b049450600085141561179a5761179f565b611740565b819350505050919050565b6000808273ffffffffffffffffffffffffffffffffffffffff163b119050919050565b600080600090507a184f03e93ff9f4daa797ed6e38ed64bf6a1f010000000000000000831061182b577a184f03e93ff9f4daa797ed6e38ed64bf6a1f010000000000000000838161182157611820612867565b5b0492506040810190505b6d04ee2d6d415b85acef81000000008310611868576d04ee2d6d415b85acef8100000000838161185e5761185d612867565b5b0492506020810190505b662386f26fc10000831061189757662386f26fc10000838161188d5761188c612867565b5b0492506010810190505b6305f5e10083106118c0576305f5e10083816118b6576118b5612867565b5b0492506008810190505b61271083106118e55761271083816118db576118da612867565b5b0492506004810190505b6064831061190857606483816118fe576118fd612867565b5b0492506002810190505b600a8310611917576001810190505b80915050919050565b82805461192c906120b2565b90600052602060002090601f01602090048101928261194e5760008555611995565b82601f1061196757805160ff1916838001178555611995565b82800160010185558215611995579182015b82811115611994578251825591602001919060010190611979565b5b5090506119a291906119a6565b5090565b5b808211156119bf5760008160009055506001016119a7565b5090565b6000604051905090565b600080fd5b600080fd5b60007fffffffff0000000000000000000000000000000000000000000000000000000082169050919050565b611a0c816119d7565b8114611a1757600080fd5b50565b600081359050611a2981611a03565b92915050565b600060208284031215611a4557611a446119cd565b5b6000611a5384828501611a1a565b91505092915050565b60008115159050919050565b611a7181611a5c565b82525050565b6000602082019050611a8c6000830184611a68565b92915050565b600081519050919050565b600082825260208201905092915050565b60005b83811015611acc578082015181840152602081019050611ab1565b83811115611adb576000848401525b50505050565b6000601f19601f8301169050919050565b6000611afd82611a92565b611b078185611a9d565b9350611b17818560208601611aae565b611b2081611ae1565b840191505092915050565b60006020820190508181036000830152611b458184611af2565b905092915050565b6000819050919050565b611b6081611b4d565b8114611b6b57600080fd5b50565b600081359050611b7d81611b57565b92915050565b600060208284031215611b9957611b986119cd565b5b6000611ba784828501611b6e565b91505092915050565b600073ffffffffffffffffffffffffffffffffffffffff82169050919050565b6000611bdb82611bb0565b9050919050565b611beb81611bd0565b82525050565b6000602082019050611c066000830184611be2565b92915050565b611c1581611bd0565b8114611c2057600080fd5b50565b600081359050611c3281611c0c565b92915050565b60008060408385031215611c4f57611c4e6119cd565b5b6000611c5d85828601611c23565b9250506020611c6e85828601611b6e565b9150509250929050565b600080600060608486031215611c9157611c906119cd565b5b6000611c9f86828701611c23565b9350506020611cb086828701611c23565b9250506040611cc186828701611b6e565b9150509250925092565b600060208284031215611ce157611ce06119cd565b5b6000611cef84828501611c23565b91505092915050565b611d0181611b4d565b82525050565b6000602082019050611d1c6000830184611cf8565b92915050565b611d2b81611a5c565b8114611d3657600080fd5b50565b600081359050611d4881611d22565b92915050565b60008060408385031215611d6557611d646119cd565b5b6000611d7385828601611c23565b9250506020611d8485828601611d39565b9150509250929050565b600080fd5b600080fd5b7f4e487b7100000000000000000000000000000000000000000000000000000000600052604160045260246000fd5b611dd082611ae1565b810181811067ffffffffffffffff82111715611def57611dee611d98565b5b80604052505050565b6000611e026119c3565b9050611e0e8282611dc7565b919050565b600067ffffffffffffffff821115611e2e57611e2d611d98565b5b611e3782611ae1565b9050602081019050919050565b82818337600083830152505050565b6000611e66611e6184611e13565b611df8565b905082815260208101848484011115611e8257611e81611d93565b5b611e8d848285611e44565b509392505050565b600082601f830112611eaa57611ea9611d8e565b5b8135611eba848260208601611e53565b91505092915050565b60008060008060808587031215611edd57611edc6119cd565b5b6000611eeb87828801611c23565b9450506020611efc87828801611c23565b9350506040611f0d87828801611b6e565b925050606085013567ffffffffffffffff811115611f2e57611f2d6119d2565b5b611f3a87828801611e95565b91505092959194509250565b600067ffffffffffffffff821115611f6157611f60611d98565b5b611f6a82611ae1565b9050602081019050919050565b6000611f8a611f8584611f46565b611df8565b905082815260208101848484011115611fa657611fa5611d93565b5b611fb1848285611e44565b509392505050565b600082601f830112611fce57611fcd611d8e565b5b8135611fde848260208601611f77565b91505092915050565b60008060408385031215611ffe57611ffd6119cd565b5b600061200c85828601611c23565b925050602083013567ffffffffffffffff81111561202d5761202c6119d2565b5b61203985828601611fb9565b9150509250929050565b6000806040838503121561205a576120596119cd565b5b600061206885828601611c23565b925050602061207985828601611c23565b9150509250929050565b7f4e487b7100000000000000000000000000000000000000000000000000000000600052602260045260246000fd5b600060028204905060018216806120ca57607f821691505b602082108114156120de576120dd612083565b5b50919050565b7f4552433732313a20617070726f76616c20746f2063757272656e74206f776e6560008201527f7200000000000000000000000000000000000000000000000000000000000000602082015250565b6000612140602183611a9d565b915061214b826120e4565b604082019050919050565b6000602082019050818103600083015261216f81612133565b9050919050565b7f4552433732313a20617070726f76652063616c6c6572206973206e6f7420746f60008201527f6b656e206f776e6572206f7220617070726f76656420666f7220616c6c000000602082015250565b60006121d2603d83611a9d565b91506121dd82612176565b604082019050919050565b60006020820190508181036000830152612201816121c5565b9050919050565b7f4552433732313a2063616c6c6572206973206e6f7420746f6b656e206f776e6560008201527f72206f7220617070726f76656400000000000000000000000000000000000000602082015250565b6000612264602d83611a9d565b915061226f82612208565b604082019050919050565b6000602082019050818103600083015261229381612257565b9050919050565b7f4552433732313a20696e76616c696420746f6b656e2049440000000000000000600082015250565b60006122d0601883611a9d565b91506122db8261229a565b602082019050919050565b600060208201905081810360008301526122ff816122c3565b9050919050565b7f4552433732313a2061646472657373207a65726f206973206e6f74206120766160008201527f6c6964206f776e65720000000000000000000000000000000000000000000000602082015250565b6000612362602983611a9d565b915061236d82612306565b604082019050919050565b6000602082019050818103600083015261239181612355565b9050919050565b600081905092915050565b60006123ae82611a92565b6123b88185612398565b93506123c8818560208601611aae565b80840191505092915050565b60006123e082856123a3565b91506123ec82846123a3565b91508190509392505050565b7f4552433732313a207472616e736665722066726f6d20696e636f72726563742060008201527f6f776e6572000000000000000000000000000000000000000000000000000000602082015250565b6000612454602583611a9d565b915061245f826123f8565b604082019050919050565b6000602082019050818103600083015261248381612447565b9050919050565b7f4552433732313a207472616e7366657220746f20746865207a65726f2061646460008201527f7265737300000000000000000000000000000000000000000000000000000000602082015250565b60006124e6602483611a9d565b91506124f18261248a565b604082019050919050565b60006020820190508181036000830152612515816124d9565b9050919050565b7f4552433732313a20617070726f766520746f2063616c6c657200000000000000600082015250565b6000612552601983611a9d565b915061255d8261251c565b602082019050919050565b6000602082019050818103600083015261258181612545565b9050919050565b7f4552433732313a207472616e7366657220746f206e6f6e20455243373231526560008201527f63656976657220696d706c656d656e7465720000000000000000000000000000602082015250565b60006125e4603283611a9d565b91506125ef82612588565b604082019050919050565b60006020820190508181036000830152612613816125d7565b9050919050565b7f4552433732313a206d696e7420746f20746865207a65726f2061646472657373600082015250565b6000612650602083611a9d565b915061265b8261261a565b602082019050919050565b6000602082019050818103600083015261267f81612643565b9050919050565b7f4552433732313a20746f6b656e20616c7265616479206d696e74656400000000600082015250565b60006126bc601c83611a9d565b91506126c782612686565b602082019050919050565b600060208201905081810360008301526126eb816126af565b9050919050565b7f45524337323155524953746f726167653a2055524920736574206f66206e6f6e60008201527f6578697374656e7420746f6b656e000000000000000000000000000000000000602082015250565b600061274e602e83611a9d565b9150612759826126f2565b604082019050919050565b6000602082019050818103600083015261277d81612741565b9050919050565b600081519050919050565b600082825260208201905092915050565b60006127ab82612784565b6127b5818561278f565b93506127c5818560208601611aae565b6127ce81611ae1565b840191505092915050565b60006080820190506127ee6000830187611be2565b6127fb6020830186611be2565b6128086040830185611cf8565b818103606083015261281a81846127a0565b905095945050505050565b60008151905061283481611a03565b92915050565b6000602082840312156128505761284f6119cd565b5b600061285e84828501612825565b91505092915050565b7f4e487b7100000000000000000000000000000000000000000000000000000000600052601260045260246000fdfea26469706673582212209424dacf68ca5dd91caed8ff5d3d3908168336333d4b657f460b44eac8d05f2464736f6c63430008090033a26469706673582212207ec3df77d83a7757b907438c34d9b1cd89f76bdc7b0af25458c09caf59be66e964736f6c63430008090033",
  "immutableReferences": {},
  "source": "// SPDX-License-Identifier: MIT\r\npragma solidity >=0.8.9;\r\n\r\nimport \"./ERC20Token.sol\";\r\nimport \"./ERC721Token.sol\";\r\n\r\ncontract Factory {\r\n    event ERC20TokenCreated(address tokenAddress);\r\n    event ERC721TokenCreated(address tokenAddress);\r\n\r\n    function deployNewERC20Token(\r\n        string calldata name,\r\n        string calldata symbol,\r\n        uint8 decimals,\r\n        uint256 initialSupply\r\n    ) public returns (address) {\r\n        ERC20Token t = new ERC20Token(\r\n            name,\r\n            symbol,\r\n            decimals,\r\n            initialSupply,\r\n            msg.sender\r\n        );\r\n        emit ERC20TokenCreated(address(t));\r\n\r\n        return address(t);\r\n    }\r\n\r\n    function deployNewERC721Token(string memory name, string memory symbol)\r\n        public\r\n        returns (address)\r\n    {\r\n        ERC721Token t = new ERC721Token(name, symbol);\r\n        emit ERC721TokenCreated(address(t));\r\n\r\n        return address(t);\r\n    }\r\n}\r\n",
  "sourcePath": "D:\\Dev\\Github\\TokenFactory\\contracts\\Factory.sol",
  "compiler": {
    "name": "solc",
    "version": "0.8.9+commit.e5eed63a.Emscripten.clang"
  },
  "schemaVersion": "3.4.13",
  "updatedAt": "2023-04-04T08:15:34.567Z",
  "networkType": "ethereum",
  "devdoc": {
    "kind": "dev",
    "methods": {},
    "version": 1
  },
  "userdoc": {
    "kind": "user",
    "methods": {},
    "version": 1
  }
}